:020000040000fa
:080000000001040000000000f3
:020000040000fa
:100008009401000094010000940100009401000094
:100018009401000094010000940100009401000084
:1000280094010000940100009401000062060000a1
:100038009401000094010000940100009401000064
:100048009401000094010000940100009401000054
:100058009401000094010000940100004e06000085
:100068009401000094010000940100009401000034
:100078009401000094010000940100009401000024
:100088009401000094010000940100009401000014
:100098009401000094010000940100009401000004
:1000a80094010000940100009401000094010000f4
:1000b80094010000940100009401000094010000e4
:1000c80094010000940100009401000094010000d4
:1000d80094010000940100009401000094010000c4
:1000e80094010000940100009401000094010000b4
:0800f8009401000094010000d6
:020000040000fa
:100108009401000094010000940100009401000093
:100118009401000094010000940100009401000083
:1001280094010000940100009401000062060000a0
:100138009401000094010000940100009401000063
:100148009401000094010000940100009401000053
:100158009401000094010000940100004e06000084
:100168009401000094010000940100009401000033
:100178009401000094010000940100009401000023
:100188009401000094010000940100009401000013
:100198009401000094010000940100009401000003
:1001a80094010000940100009401000094010000f3
:1001b80094010000940100009401000094010000e3
:1001c80094010000940100009401000094010000d3
:1001d80094010000940100009401000094010000c3
:1001e80094010000940100009401000094010000b3
:0801f8009401000094010000d5
:020000040000fa
:10020000ef8020000eff20000e018800000000009b
:1002100000012000200288000c0007000070200070
:100220000100200011000700000020000000e00095
:10023000020032000000020000000000f003020093
:10024000000000000040da000000fe004440a90069
:10025000000020000000e000030032000000200049
:10026000a00188004440a800000006009101880019
:10027000800078000000eb0015003700e2804000ad
:1002800032a0b4009101ba00e280400032a0b40074
:100290009102ba00e280400032a0b4000002eb00fc
:1002a000472bde00f507b200602ce10004003a00a5
:1002b0000059eb008301e900fdff3e000400370018
:1002c0006128e100010032000082eb000400070019
:1002d0001101ba000200e000e8ff3a000000060049
:1002e0003159ba008301e9000c0032002159ba00eb
:1002f0008301e900080032000400e00003003a0036
:10030000e280400032a0b400f5ff370011d9ba00f6
:100310008301e900faff3a008100e800e180400033
:1003200032a0b400000006000040da000000fe0029
:10033000889fbe008a9fbe008c1f78009d0007002a
:10034000a400330003866c006450e1002e003200ec
:100350006420e100330032006150e1002f003200e0
:100360006120e1003100320085855500eb07b000c7
:10037000090020000804200005003700080444009c
:1003800089844c000a0031000603430087834b0038
:100390000001530081815b00f8ff33000203be00bf
:1003a0000800a0000804440089844c00f6ff3900ce
:1003b000c639dd0083017300010032001300200004
:1003c0008904d1000884d3000998a30005003200f5
:1003d0000800a7000300a0008904d1000884d3000e
:1003e0008b05e8008904d1000884d3000001eb00ec
:1003f0000281d2003400070001f0a1000cf0a70038
:1004000001f0a0007c0037006420e1007e00320093
:100410000801be000200be00f7ff37006120e100c6
:10042000790032006000b800f3ff370000002000c0
:1004300001f82700f0ff37000001be004800070068
:100440000470a70003f0a1006509b1001600320096
:100450000d0035006828e10006003500f0ff2f0090
:10046000f1ff27000300e00013003b00010028001b
:100470000000050000004000818048008502e9007e
:10048000fcff3a0008003700f88f420002003c00f1
:100490008000eb00000005008100d1000080d30047
:1004a0008502e800fcff3a000300e00002003b0088
:1004b00060001000e0801800000006004f89de0098
:1004c000820178008700370081002000618055009c
:1004d0000b003d000b00200061fe2f000100e10039
:1004e0001d00340082817100610164008904d10023
:1004f0000884d3000000e800faff3a0071002000f1
:100500006100640003007000020060000900320016
:1005100061044400e0844c000988a5000500320015
:100520008b05e8006808e10002003a008904d10068
:100530000884d300f20f20000258e10005003d00be
:10054000c75ddd00f907b2008980750008007800fa
:10055000000006000bf827008b0078000000050063
:10056000c70ade00f107b200f50fb2000800320042
:10057000e1cf4200020032000170a000240005001b
:10058000810f7000010032000408050044000500de
:10059000810f700002003a00140005008502e90096
:1005a0000000400081c04800fcff3b000170a0003b
:1005b000240005000004be00e9ff07000003be00a0
:1005c0000405be000200be00e5ff0700844f750071
:1005d000000006000200be006450e1000500360085
:1005e0006420e100020036000968a30001003a001f
:1005f0000800be000160a0004f0678004f05be0055
:100600004f04be0000000600f0ff2f00f1ff27009e
:10061000f9ff3700889fbe008a9fbe008c1f7800bc
:10062000e4ff0700ebff330003866c006450e10039
:10063000240032006420e100270032006150e10014
:10064000220032006120e100210032008b8542004f
:10065000eb07b1000134b800003ab80008044200ca
:1006600089844a00013ab8000030b8008880400010
:1006700009014a0004003300000040008180480066
:10068000020149008b05e900c909dd008301700002
:100690000100320013002000c814de004814dd0001
:1006a0004709de001200b200c808de0008847000ae
:1006b00085ff070001f0a1000cf0a70001f0a000e9
:1006c000cdff37006120e100cfff32000801be00fe
:1006d0000200be00f7ff37006150e100fcff3a0066
:1006e000c9ff3700881f7800030478000300e0008a
:1006f00007003d0060001000e08018006001190054
:10070000e081190002003b0001f02d0003003700da
:100710000400070008f0a70001f0a0004f047800d3
:1007200000000600889fbe008a9fbe000082700005
:100730000402710004827100260032000004be0031
:100740000200be006011b8006b0920009502200075
:100750000182cf000a0039000541b1000082cf00bc
:10076000070039000541b1000982cf0004003900bb
:100770000541b1000882cf00010039000541b100f8
:1007800005425200120032000a003b0082817100d3
:10079000610164008100d1000080d3008984d3000e
:1007a0000884d3008b05e8000442e800f7ff3a0014
:1007b000070037000804440089844c00000048000a
:1007c000818048008b05e9000442e900f9ff3a0006
:1007d0003dff07004f05be004f04be0000000600ad
:020000040000fa
:1007e0000c00fa00e46f2000040f78006409200078
:1007f000140798002403200024079800e41f200019
:1008000034079800843e200044079800446a200082
:10081000540798003400200094168800c403200078
:1008200034168800cde2a900ca02a8002f010700f3
:10083000440107005a0107005f010700ca22a8000f
:10084000400620006a00070000000000a416800097
:1008500062026200e00f5200fcff320060ff2f00d6
:100860006300070000000000a4168000610262001f
:10087000e00f5200fcff3200047d200034098800a4
:10088000400620005a00070000000000a416800067
:1008900061026200e00f5200fcff3a000000eb0032
:1008a00053000700ca22a9000002eb003440880070
:1008b0003540800064002000110009008402d80047
:1008c00001027800040242006e027a0004007800ff
:1008d0008f0007000100370000000000a416800010
:1008e00061026200e00f520002003200047d20002d
:1008f0003409880004408000e00f52000a003400f0
:10090000a416800062026200e00f5200060032006e
:100910000000eb00360007003509800004832f003b
:10092000048242004440880004408000e00f5200ee
:100930000a003d00a416800061026200e00f520030
:10094000060032000000eb00290007003509800096
:1009500004832f000482420044408800870007007f
:1009600000427800e04f5200dbff32000002eb0053
:10097000144088000d0037000002eb00244088007e
:1009800003003700244080000402e800244088006f
:1009900025408000740c2000848f5200f9ff340041
:1009a000144080000402e8001440880015408000d4
:1009b000f4cf2700848f5200efff340034408000d2
:1009c0000402e800344088003540800064002000c4
:1009d000110009008402d8000102780004024200dc
:1009e0006e027a000400780049000700bbff370060
:1009f0000200fa00000f78001e027800e00f52009b
:100a00000b0034001e0278007e22b90084027800b8
:100a100044062000110009008402d800000278007a
:100a20007e02420004408800d1e2a9001000370095
:100a30001e027800e00f52000b003d001e027800fd
:100a40007e22b900840278004406200011000900cb
:100a50008402d800000278007e0212000440880060
:100a6000d1e2a800020037000002eb000440880039
:100a70001e027800e00f520006003400a416800029
:100a800062026200e00f5200020032000002eb003e
:100a9000044088001e027800e00f520006003d006e
:100aa000a416800061026200e00f520002003200d2
:100ab0000002eb000440880004408000cfa2de006a
:100ac0000400be007dfe07000002be0002002600fa
:100ad000a35e24000400be00cefe07000002be009c
:100ae00002002000832c24000400be0010fe07003a
:100af0000002be000400be004ffe07000002be0060
:100b000004027800b40e88000080fa00000006009d
:100b10000200fa00000f78001e027800cfa2de006b
:100b20000400be0065fe07000002be0002002c00ab
:100b3000534a24000400be00fdfd07000002be0071
:100b400002002800b35324000400be00b1fe0700d9
:100b50000002be000400be0037fe07000002be0017
:100b600004027800444088006022b80054408800a5
:100b7000654088000080fa00000006000000fa00ce
:100b8000444080006f0252008402780036098000e1
:100b900004832f0004024300848f52000e003100b2
:100ba0003509800004832f00848242004440800085
:100bb0006f024200848f5200070031000000eb00fa
:100bc0008bff07006022b800544088006540880011
:100bd00014c0b3002e0037003509800004832f00b5
:100be0008482420044408000848f52000f0036000f
:100bf00035098000444080008482520004832f0025
:100c000084824200843e2000848f5200030036001c
:100c100080fd2f0076ff070002003700c0fe2f0086
:100c200073ff07000042eb00190037003509800010
:100c300004832f008482420044408000848f52004d
:100c400010003100444080008402780034098000a4
:100c50008482520004832f0084824200843e20005c
:100c6000848f5200030036004006200060ff07001a
:100c700002003700c00320005dff07000042eb00c8
:100c8000030037000000eb0059ff07000042eb00b3
:100c9000044078000080fa00000006003400f800ec
:100ca000881f780008002000a80188004f04780001
:100cb0000000fa0085e0a9000080fa003400f90085
:100cc000004006003400f800881f7800080020006b
:100cd000a80188004f0478000000fa008460a90091
:100ce0000080fa003400f900004006000000fa001d
:100cf000f4ff2000440e88000002eb00040e880080
:100d0000040e80000420a1000430a100040e88001d
:100d100004fa2000240e88000002eb00b40e8800c4
:100d20000002eb00c40e88000002eb00d40e880025
:100d30000002eb00140e8800c1e1a8000080fa0058
:100d4000000006000000fa00c682a800c6a2a800a3
:100d5000a882a800a8a2a80023a1a90014098000c5
:100d60000480a0000490a00004a0a0001409880042
:100d700022e1a80022c1a90022a1a9001409800033
:100d80000430a1000440a100140988002241a900f8
:100d90002221a9002501a8000080fa000000060019
:100da0000000fa00c000a80085e0a9008de0a800be
:100db0000080fa00000006000000fa000002eb00cc
:100dc000240888008460a9008c60a8000002eb0061
:100dd00004088800c40420001408880005a1a900a4
:100de000240880000440a1000450a10024088800c9
:100df0000421a90005e1a8000080fa000000060017
:020000040000fa
:100e000000080000080000000000000008080000c2
:100e100006000000020000000000000000000000ca
:040e200000000000ce
:020000040000fa
:0200000401f009
:04000000f3bf00004a
:020000040000fa
:0200000401f009
:04000400ff7f00007a
:020000040000fa
:0200000401f009
:04000800fcff0000f9
:020000040000fa
:0200000401f009
:04001400ffff0000ea
:00000001FF
