:020000040000fa
:080000000001040000000000f3
:020000040000fa
:100008009401000094010000940100009401000094
:100018009401000094010000940100009401000084
:100028009401000094010000940100009401000074
:100038009401000094010000940100009401000064
:100048009401000094010000940100009401000054
:100058009401000094010000940100009401000044
:100068009401000094010000940100009401000034
:100078009401000094010000940100009401000024
:100088009401000094010000940100009401000014
:100098009401000094010000940100009401000004
:1000a80094010000940100009401000094010000f4
:1000b80094010000940100009401000094010000e4
:1000c80094010000940100009401000094010000d4
:1000d80094010000940100009401000094010000c4
:1000e80094010000940100009401000094010000b4
:0800f8009401000094010000d6
:020000040000fa
:100108009401000094010000940100009401000093
:100118009401000094010000940100009401000083
:100128009401000094010000940100009401000073
:100138009401000094010000940100009401000063
:100148009401000094010000940100009401000053
:100158009401000094010000940100009401000043
:100168009401000094010000940100009401000033
:100178009401000094010000940100009401000023
:100188009401000094010000940100009401000013
:100198009401000094010000940100009401000003
:1001a80094010000940100009401000094010000f3
:1001b80094010000940100009401000094010000e3
:1001c80094010000940100009401000094010000d3
:1001d80094010000940100009401000094010000c3
:1001e80094010000940100009401000094010000b3
:0801f8009401000094010000d5
:020000040000fa
:100200000f8020000eff20000e018800000000007b
:1002100000012000200288000c000700603a200046
:100220000100200011000700000020000000e00095
:10023000020032000000020000000000160202006e
:10024000000000000040da000000fe004440a90069
:10025000e00020000000e000030032000000200069
:10026000a00188004440a800000006009101880019
:10027000800078000000eb0015003700e2804000ad
:1002800032a0b4009101ba00e280400032a0b40074
:100290009102ba00e280400032a0b4000002eb00fc
:1002a000472bde00f507b200602ce10004003a00a5
:1002b0000059eb008301e900fdff3e000400370018
:1002c0006128e100010032000082eb000400070019
:1002d0001101ba000200e000e8ff3a000000060049
:1002e0003159ba008301e9000c0032002159ba00eb
:1002f0008301e900080032000400e00003003a0036
:10030000e280400032a0b400f5ff370011d9ba00f6
:100310008301e900faff3a008100e800e180400033
:1003200032a0b400000006000040da000000fe0029
:10033000001020001802b6000000e9004f00de00a7
:100340000000060017e2a9008f00a9008f20a90075
:100350008700a9008720a900000006008700a900e7
:100360008720a900e702600084ff2f0006058000b7
:10037000060262000502720004058800800278000f
:100380000507b200f4f82f0006058000060262009f
:100390000502720004058800e8026000c32ade003e
:1003a000e1826200c82add00f4ef2f0076048000ad
:1003b0000602620005027200740488000008b200a0
:1003c0004700de00610060004900dd00f4df2f001f
:1003d0007504800005026200000272007404880047
:1003e00000000600f2108800b0108800c1108800dc
:1003f00000000600b410800066026200e60f5200a2
:1004000001003200f00fb200d0108800000006009a
:020000040000fa
:100410000320000000000000031e00000000000098
:0c042000050300000407000000000000bd
:020000040000fa
:10042c000c00fa00660247000521280004000900b0
:10043c00355a78000002eb00240798000002eb000c
:10044c0024079800310037002e009000ab00070005
:10045c006602470052c0b30084007800e0cfb300be
:10046c00570007000002eb00040f78000a00370069
:10047c000002eb0014079800030037001e029000e6
:10048c000402e800140798001e029000e90f5200c5
:10049c00faff36001e0fe800f4cf27009e0278000a
:1004ac00848f5200f2ff360070002000930007008a
:1004bc00f13f2000e0cfb300190007000002eb0071
:1004cc00040f78000a0037000002eb0014079800b4
:1004dc00030037001e0290000402e8001407980085
:1004ec001e029000e90f5200faff36001e0fe800c2
:1004fc00f4cf27009e027800848f5200f2ff360062
:10050c002e0290000402e80024079800ae0290002e
:10051c00b4122000848f5200cbff3600c7ff370087
:10052c000800fa004047980031079800c4202800c2
:10053c0003000900345f78004e00b1003e029000c9
:10054c0004427800244798003e02900048a2de0046
:10055c00044278003447980042c0b3008e00780003
:10056c004e409000160007000080fa0000000600c4
:10057c000800fa00404798003107980084202800b2
:10058c0003000900345f78004e00b1003e02900079
:10059c0004427800244798003e02900048a2de00f6
:1005ac00044278003447980042c0b3008e007800b3
:1005bc004e409000020007000080fa000000060088
:1005cc000800fa002047980021079800624798001d
:1005dc000042eb00044f78000042eb0014479800f7
:1005ec00000000004fff070000427800e04f52006f
:1005fc00fcff3a00f00f20007bff0700f00f2000fb
:10060c0079ff07002e4290000402fb0004007800e2
:10061c0075ff07006e4290000402fb000402e80024
:10062c000400780070ff0700000000003dff070089
:10063c0000427800e04f5200fcff3a00ae429000be
:10064c006e42900004c242000442e800044f78005d
:10065c000042eb0014479800190037001e4290002e
:10066c000402fb00ae0290000482420014427800a7
:10067c00844278001e42780004c24200044f780085
:10068c001e4290000402fb00ae0290000482420065
:10069c00144278000402fb000400780052ff0700ab
:1006ac00000000001fff070000427800e04f5200de
:1006bc00fcff3a001e4290000442e80014479800e8
:1006cc009e4290006e42900084cf5200e3ff3500b2
:1006dc001e02fb000482ea000400780042ff0700bf
:1006ec00000000000fff070000427800e04f5200ae
:1006fc00fcff3a000080fa00000006000800fa0037
:10070c00300798000cff070060f22f0010ff070065
:10071c003e029000040f780004f62d001407980098
:10072c00d4792f00240798001e017800ae009000a9
:10073c001e00900028ff07000080fa000000060051
:020000040000fa
:04074c0000000000a9
:020000040000fa
:0200000401f009
:04000000f7bf000046
:020000040000fa
:0200000401f009
:04000400ff7f00007a
:020000040000fa
:0200000401f009
:04000800ffff0000f6
:020000040000fa
:0200000401f009
:04001400ffff0000ea
:00000001FF
