:020000040000fa
:080000000001040000000000f3
:020000040000fa
:100008009401000094010000940100009401000094
:100018009401000094010000940100009401000084
:10002800940100009401000094010000a001000068
:100038009401000094010000940100009401000064
:100048009401000094010000940100009401000054
:100058009401000094010000940100009401000044
:100068009401000094010000940100009401000034
:100078009401000094010000940100009401000024
:100088009401000094010000940100009401000014
:100098009401000094010000940100009401000004
:1000a80094010000940100009401000094010000f4
:1000b80094010000940100009401000094010000e4
:1000c80094010000940100009401000094010000d4
:1000d80094010000940100009401000094010000c4
:1000e80094010000940100009401000094010000b4
:0800f8009401000094010000d6
:020000040000fa
:100108009401000094010000940100009401000093
:100118009401000094010000940100009401000083
:10012800940100009401000094010000a001000067
:100138009401000094010000940100009401000063
:100148009401000094010000940100009401000053
:100158009401000094010000940100009401000043
:100168009401000094010000940100009401000033
:100178009401000094010000940100009401000023
:100188009401000094010000940100009401000013
:100198009401000094010000940100009401000003
:1001a80094010000940100009401000094010000f3
:1001b80094010000940100009401000094010000e3
:1001c80094010000940100009401000094010000d3
:1001d80094010000940100009401000094010000c3
:1001e80094010000940100009401000094010000b3
:0801f8009401000094010000d5
:020000040000fa
:100200004f8020000eff20000e018800000000003b
:1002100000012000200288000c000700602120005f
:100220000100200011000700000020000000e00095
:1002300002003200000002000000000098010200ed
:10024000000000000040da000000fe004440a90069
:10025000000020000000e000030032000000200049
:10026000a00188004440a800000006009101880019
:10027000800078000000eb0015003700e2804000ad
:1002800032a0b4009101ba00e280400032a0b40074
:100290009102ba00e280400032a0b4000002eb00fc
:1002a000472bde00f507b200602ce10004003a00a5
:1002b0000059eb008301e900fdff3e000400370018
:1002c0006128e100010032000082eb000400070019
:1002d0001101ba000200e000e8ff3a000000060049
:1002e0003159ba008301e9000c0032002159ba00eb
:1002f0008301e900080032000400e00003003a0036
:10030000e280400032a0b400f5ff370011d9ba00f6
:100310008301e900faff3a008100e800e180400033
:1003200032a0b400000006000040da000000fe0029
:020000040000fa
:100330000000fa002b000700c6c2a900ffff37002b
:10034000849fbe003400f80004002000a40188004f
:100350000000fa008460a900144080000402e80054
:100360001440880015408000e40f2000848f520064
:1003700002003e00cac2a8001600370015408000e7
:10038000e41f2000848f52000a003e0014408000c9
:1003900015f02f008482420004082000848f520050
:1003a00002003600cac2a9000a003700cac2a8006b
:1003b0000800370015408000b43e2100848f5200b1
:1003c00002003e00cac2a900020037000002eb0092
:1003d000144088000080fa003400f9004f02be008b
:1003e000004006000000fa000002eb00240888002c
:1003f0008460a9008c60a8000002eb00040888005b
:10040000a42320001408880005a1a9002408800066
:100410000440a1000450a100240888000421a90080
:0c04200005e1a8000080fa0000000600c2
:020000040000fa
:10042c0000080000040000000200000000000000b2
:08043c000000000000000000b8
:020000040000fa
:0200000401f009
:04000000fabf000043
:020000040000fa
:0200000401f009
:04000400ff7f00007a
:020000040000fa
:0200000401f009
:04000800fcff0000f9
:020000040000fa
:0200000401f009
:04001400ffff0000ea
:00000001FF
