:020000040000fa
:080000000001040000000000f3
:020000040000fa
:100008009401000094010000940100009401000094
:100018009401000094010000940100009401000084
:100028009401000094010000940100009401000074
:100038009401000094010000940100009401000064
:100048009401000094010000940100009401000054
:100058009401000094010000940100009401000044
:100068009401000094010000940100009401000034
:100078009401000094010000940100009401000024
:100088009401000094010000940100009401000014
:100098009401000094010000940100009401000004
:1000a80094010000940100009401000094010000f4
:1000b80094010000940100009401000094010000e4
:1000c80094010000940100009401000094010000d4
:1000d80094010000940100009401000094010000c4
:1000e80094010000940100009401000094010000b4
:0800f8009401000094010000d6
:020000040000fa
:100108009401000094010000940100009401000093
:100118009401000094010000940100009401000083
:100128009401000094010000940100009401000073
:100138009401000094010000940100009401000063
:100148009401000094010000940100009401000053
:100158009401000094010000940100009401000043
:100168009401000094010000940100009401000033
:100178009401000094010000940100009401000023
:100188009401000094010000940100009401000013
:100198009401000094010000940100009401000003
:1001a80094010000940100009401000094010000f3
:1001b80094010000940100009401000094010000e3
:1001c80094010000940100009401000094010000d3
:1001d80094010000940100009401000094010000c3
:1001e80094010000940100009401000094010000b3
:0801f8009401000094010000d5
:020000040000fa
:100200000f8020000eff20000e018800000000007b
:1002100000012000200288000c000700203520008b
:100220000100200011000700000020000000e00095
:10023000020032000000020000000000ca020200ba
:10024000000000000040da000000fe004440a90069
:10025000000020000000e000030032000000200049
:10026000a00188004440a800000006009101880019
:10027000800078000000eb0015003700e2804000ad
:1002800032a0b4009101ba00e280400032a0b40074
:100290009102ba00e280400032a0b4000002eb00fc
:1002a000472bde00f507b200602ce10004003a00a5
:1002b0000059eb008301e900fdff3e000400370018
:1002c0006128e100010032000082eb000400070019
:1002d0001101ba000200e000e8ff3a000000060049
:1002e0003159ba008301e9000c0032002159ba00eb
:1002f0008301e900080032000400e00003003a0036
:10030000e280400032a0b400f5ff370011d9ba00f6
:100310008301e900faff3a008100e800e180400033
:1003200032a0b400000006000040da000000fe0029
:10033000901c8800a11c880000000600401bde0005
:1003400007002000e1cf520008003200e2cf520047
:100350000a003200001b8800161b8800221b880040
:100360000003eb008483fb0012003700801a880032
:10037000961a8800a21a8800f9ff3700001a880030
:10038000161a8800221a8800f5ff37006035200011
:10039000e1cf52000400320060362000e2cf52006c
:1003a00001003a006034200011707b000603e80071
:1003b0008100e800870f5300f4ff35006f426200b0
:1003c000e1cf52000a003200e2cf520011003200a9
:1003d000e0cf520018003a006f0262004322dd00b5
:1003e00075f82f00261b80008682620017003700f8
:1003f0006f0262004322dd0075f82f00a21a800010
:100400008282620004827200a41a88005e63a800df
:10041000000006006f0262004322dd0075f82f0025
:10042000261a80008682620004827200241a8800e4
:100430004e63a800000006006f0262004322dd0048
:1004400075f82f00221b80008282620004827200f5
:10045000241b88006e63a80000000600889fbe0071
:10046000401cde00090020000003fb00cfb3de00cb
:10047000e50f5300e08f5b001e003e0006600100a8
:1004800005003700070037000a0037000d0037006d
:100490001000370013003700011888001818880072
:1004a0001600370041188800581888006218880024
:1004b000130037008118880098188800a218880057
:1004c0000f003700c1188800d8188800e21888008b
:1004d0000b003700011988001819880022198800bc
:1004e00007003700411988005819880062198800f0
:1004f00003003700011888001818880022188800a7
:100500004f04be0000000600401ade000500200077
:10051000e04f500006003200e14f500004003a0066
:10052000c1198800d4198800e2198800000006006b
:100530008119880094198800a2198800000006001b
:10054000801c880000000600e04f500004003200cc
:10055000e14f500002003a00f11b88000000060045
:10056000711c880000000600e14f500003003200bb
:10057000e24f500005003a0002003700f11a8800ef
:1005800000000600711a880000000600711b880038
:040590000000060061
:020000040000fa
:100594000a00fa00de22a900de02a80021000700fa
:1005a40014c4b3002447980024c7b3003447980008
:1005b40054c6b3004447980034c7b3005447980066
:1005c40004c2b3006447980024c5b300744798007c
:1005d400f4c6b300044f980084c7b300144f9800c6
:1005e4000e83e8008042eb0084c0b30086007800ec
:1005f400821f200003002000000022004eff07009d
:100604000002eb00040f7800010037001e0fe80021
:10061400f4a52e009e027800848f5200fbff360062
:10062400efff37000000fa0000402800c3ff070076
:1006340000000000841c80004522de006742620046
:100644000482fb00e30f5200faff3400012920006a
:100654007005200035ff07006011b800013220004a
:100664000040eb007cff07006011b800110020007f
:100674000040eb00a3ff0700310020000040eb0026
:10068400b8ff0700410020000040eb00adff070069
:100694000000eb00a9ff07000080fa00000006003c
:020000040000fa
:0406a4000000000052
:020000040000fa
:0200000401f009
:04000000f6bf000047
:020000040000fa
:0200000401f009
:04000400ff7f00007a
:020000040000fa
:0200000401f009
:04000800ffff0000f6
:020000040000fa
:0200000401f009
:04001400ffff0000ea
:00000001FF
